{
  "_format": "hh-sol-artifact-1",
  "contractName": "Create",
  "sourceName": "contracts/Vote.sol",
  "abi": [
    {
      "inputs": [],
      "stateMutability": "nonpayable",
      "type": "constructor"
    },
    {
      "anonymous": false,
      "inputs": [
        {
          "indexed": true,
          "internalType": "uint256",
          "name": "candidateId",
          "type": "uint256"
        },
        {
          "indexed": false,
          "internalType": "string",
          "name": "age",
          "type": "string"
        },
        {
          "indexed": false,
          "internalType": "string",
          "name": "name",
          "type": "string"
        },
        {
          "indexed": false,
          "internalType": "string",
          "name": "image",
          "type": "string"
        },
        {
          "indexed": false,
          "internalType": "uint256",
          "name": "voteCount",
          "type": "uint256"
        },
        {
          "indexed": false,
          "internalType": "address",
          "name": "_address",
          "type": "address"
        },
        {
          "indexed": false,
          "internalType": "string",
          "name": "ipfs",
          "type": "string"
        }
      ],
      "name": "CandidateCreate",
      "type": "event"
    },
    {
      "anonymous": false,
      "inputs": [
        {
          "indexed": true,
          "internalType": "uint256",
          "name": "voter_voterId",
          "type": "uint256"
        },
        {
          "indexed": false,
          "internalType": "string",
          "name": "voter_name",
          "type": "string"
        },
        {
          "indexed": false,
          "internalType": "string",
          "name": "voter_image",
          "type": "string"
        },
        {
          "indexed": false,
          "internalType": "address",
          "name": "voter_address",
          "type": "address"
        },
        {
          "indexed": false,
          "internalType": "uint256",
          "name": "voter_allowed",
          "type": "uint256"
        },
        {
          "indexed": false,
          "internalType": "bool",
          "name": "voter_voted",
          "type": "bool"
        },
        {
          "indexed": false,
          "internalType": "uint256",
          "name": "voter_vote",
          "type": "uint256"
        },
        {
          "indexed": false,
          "internalType": "string",
          "name": "voter_ipfs",
          "type": "string"
        }
      ],
      "name": "VoterCreated",
      "type": "event"
    },
    {
      "stateMutability": "payable",
      "type": "fallback"
    },
    {
      "inputs": [],
      "name": "_candidateId",
      "outputs": [
        {
          "internalType": "uint256",
          "name": "_value",
          "type": "uint256"
        }
      ],
      "stateMutability": "view",
      "type": "function"
    },
    {
      "inputs": [],
      "name": "_voterId",
      "outputs": [
        {
          "internalType": "uint256",
          "name": "_value",
          "type": "uint256"
        }
      ],
      "stateMutability": "view",
      "type": "function"
    },
    {
      "inputs": [
        {
          "internalType": "uint256",
          "name": "",
          "type": "uint256"
        }
      ],
      "name": "candidateAddress",
      "outputs": [
        {
          "internalType": "address",
          "name": "",
          "type": "address"
        }
      ],
      "stateMutability": "view",
      "type": "function"
    },
    {
      "inputs": [
        {
          "internalType": "address",
          "name": "",
          "type": "address"
        }
      ],
      "name": "candidates",
      "outputs": [
        {
          "internalType": "uint256",
          "name": "candidateId",
          "type": "uint256"
        },
        {
          "internalType": "string",
          "name": "age",
          "type": "string"
        },
        {
          "internalType": "string",
          "name": "name",
          "type": "string"
        },
        {
          "internalType": "string",
          "name": "image",
          "type": "string"
        },
        {
          "internalType": "uint256",
          "name": "voteCount",
          "type": "uint256"
        },
        {
          "internalType": "address",
          "name": "_address",
          "type": "address"
        },
        {
          "internalType": "string",
          "name": "ipfs",
          "type": "string"
        }
      ],
      "stateMutability": "view",
      "type": "function"
    },
    {
      "inputs": [],
      "name": "getCandidate",
      "outputs": [
        {
          "internalType": "address[]",
          "name": "",
          "type": "address[]"
        }
      ],
      "stateMutability": "view",
      "type": "function"
    },
    {
      "inputs": [],
      "name": "getCandidateLength",
      "outputs": [
        {
          "internalType": "uint256",
          "name": "",
          "type": "uint256"
        }
      ],
      "stateMutability": "view",
      "type": "function"
    },
    {
      "inputs": [],
      "name": "getVotedVoterList",
      "outputs": [
        {
          "internalType": "address[]",
          "name": "",
          "type": "address[]"
        }
      ],
      "stateMutability": "view",
      "type": "function"
    },
    {
      "inputs": [
        {
          "internalType": "address",
          "name": "_address",
          "type": "address"
        }
      ],
      "name": "getVoterData",
      "outputs": [
        {
          "internalType": "uint256",
          "name": "",
          "type": "uint256"
        },
        {
          "internalType": "string",
          "name": "",
          "type": "string"
        },
        {
          "internalType": "string",
          "name": "",
          "type": "string"
        },
        {
          "internalType": "address",
          "name": "",
          "type": "address"
        },
        {
          "internalType": "string",
          "name": "",
          "type": "string"
        },
        {
          "internalType": "uint256",
          "name": "",
          "type": "uint256"
        },
        {
          "internalType": "bool",
          "name": "",
          "type": "bool"
        }
      ],
      "stateMutability": "view",
      "type": "function"
    },
    {
      "inputs": [],
      "name": "getVoterLength",
      "outputs": [
        {
          "internalType": "uint256",
          "name": "",
          "type": "uint256"
        }
      ],
      "stateMutability": "view",
      "type": "function"
    },
    {
      "inputs": [],
      "name": "getVoters",
      "outputs": [
        {
          "internalType": "address[]",
          "name": "",
          "type": "address[]"
        }
      ],
      "stateMutability": "view",
      "type": "function"
    },
    {
      "inputs": [
        {
          "internalType": "address",
          "name": "_address",
          "type": "address"
        }
      ],
      "name": "getcandidatedata",
      "outputs": [
        {
          "internalType": "string",
          "name": "",
          "type": "string"
        },
        {
          "internalType": "string",
          "name": "",
          "type": "string"
        },
        {
          "internalType": "uint256",
          "name": "",
          "type": "uint256"
        },
        {
          "internalType": "string",
          "name": "",
          "type": "string"
        },
        {
          "internalType": "uint256",
          "name": "",
          "type": "uint256"
        },
        {
          "internalType": "string",
          "name": "",
          "type": "string"
        },
        {
          "internalType": "address",
          "name": "",
          "type": "address"
        }
      ],
      "stateMutability": "view",
      "type": "function"
    },
    {
      "inputs": [
        {
          "internalType": "address",
          "name": "_address",
          "type": "address"
        },
        {
          "internalType": "string",
          "name": "_age",
          "type": "string"
        },
        {
          "internalType": "string",
          "name": "_name",
          "type": "string"
        },
        {
          "internalType": "string",
          "name": "_ipfs",
          "type": "string"
        },
        {
          "internalType": "string",
          "name": "_image",
          "type": "string"
        }
      ],
      "name": "setCandidate",
      "outputs": [],
      "stateMutability": "nonpayable",
      "type": "function"
    },
    {
      "inputs": [
        {
          "internalType": "address",
          "name": "_candidateAddress",
          "type": "address"
        },
        {
          "internalType": "uint256",
          "name": "_candidateVoteId",
          "type": "uint256"
        }
      ],
      "name": "vote",
      "outputs": [],
      "stateMutability": "nonpayable",
      "type": "function"
    },
    {
      "inputs": [
        {
          "internalType": "uint256",
          "name": "",
          "type": "uint256"
        }
      ],
      "name": "votedVoters",
      "outputs": [
        {
          "internalType": "address",
          "name": "",
          "type": "address"
        }
      ],
      "stateMutability": "view",
      "type": "function"
    },
    {
      "inputs": [
        {
          "internalType": "address",
          "name": "_address",
          "type": "address"
        },
        {
          "internalType": "string",
          "name": "_name",
          "type": "string"
        },
        {
          "internalType": "string",
          "name": "_image",
          "type": "string"
        },
        {
          "internalType": "string",
          "name": "_ipfs",
          "type": "string"
        }
      ],
      "name": "voterRight",
      "outputs": [],
      "stateMutability": "nonpayable",
      "type": "function"
    },
    {
      "inputs": [
        {
          "internalType": "address",
          "name": "",
          "type": "address"
        }
      ],
      "name": "voters",
      "outputs": [
        {
          "internalType": "uint256",
          "name": "voter_voterId",
          "type": "uint256"
        },
        {
          "internalType": "string",
          "name": "voter_name",
          "type": "string"
        },
        {
          "internalType": "string",
          "name": "voter_image",
          "type": "string"
        },
        {
          "internalType": "address",
          "name": "voter_address",
          "type": "address"
        },
        {
          "internalType": "uint256",
          "name": "voter_allowed",
          "type": "uint256"
        },
        {
          "internalType": "bool",
          "name": "voter_voted",
          "type": "bool"
        },
        {
          "internalType": "uint256",
          "name": "voter_vote",
          "type": "uint256"
        },
        {
          "internalType": "string",
          "name": "voter_ipfs",
          "type": "string"
        }
      ],
      "stateMutability": "view",
      "type": "function"
    },
    {
      "inputs": [
        {
          "internalType": "uint256",
          "name": "",
          "type": "uint256"
        }
      ],
      "name": "votersAddress",
      "outputs": [
        {
          "internalType": "address",
          "name": "",
          "type": "address"
        }
      ],
      "stateMutability": "view",
      "type": "function"
    },
    {
      "inputs": [],
      "name": "votingOrganizer",
      "outputs": [
        {
          "internalType": "address",
          "name": "",
          "type": "address"
        }
      ],
      "stateMutability": "view",
      "type": "function"
    },
    {
      "stateMutability": "payable",
      "type": "receive"
    }
  ],
  "bytecode": "0x608060405234801561001057600080fd5b5033600260006101000a81548173ffffffffffffffffffffffffffffffffffffffff021916908373ffffffffffffffffffffffffffffffffffffffff160217905550612957806100616000396000f3fe60806040526004361061010d5760003560e01c80638e94568511610095578063a738896711610064578063a7388967146103d8578063b9be315214610403578063c91ec7121461042e578063cdd7225314610457578063f7522a831461048257610114565b80638e945685146102e35780638fb4cd801461030e578063a1870d7114610351578063a3ec138d1461039457610114565b80635cc48aa7116100dc5780635cc48aa7146101e45780635f74bbde1461020f57806370218b85146102385780637831ffb3146102635780638ab66a90146102a057610114565b80630361419e1461011657806305ad45a41461013f5780633a88251a1461016a57806343242daa146101a757610114565b3661011457005b005b34801561012257600080fd5b5061013d60048036038101906101389190611c72565b6104ad565b005b34801561014b57600080fd5b50610154610737565b6040516101619190611d46565b60405180910390f35b34801561017657600080fd5b50610191600480360381019061018c9190611d8d565b610744565b60405161019e9190611dc9565b60405180910390f35b3480156101b357600080fd5b506101ce60048036038101906101c99190611d8d565b610783565b6040516101db9190611dc9565b60405180910390f35b3480156101f057600080fd5b506101f96107c2565b6040516102069190611dc9565b60405180910390f35b34801561021b57600080fd5b5061023660048036038101906102319190611de4565b6107e8565b005b34801561024457600080fd5b5061024d6109af565b60405161025a9190611ee2565b60405180910390f35b34801561026f57600080fd5b5061028a60048036038101906102859190611d8d565b610a3d565b6040516102979190611dc9565b60405180910390f35b3480156102ac57600080fd5b506102c760048036038101906102c29190611f04565b610a7c565b6040516102da9796959493929190611fb0565b60405180910390f35b3480156102ef57600080fd5b506102f8610cfe565b6040516103059190611ee2565b60405180910390f35b34801561031a57600080fd5b5061033560048036038101906103309190611f04565b610d8c565b6040516103489796959493929190612056565b60405180910390f35b34801561035d57600080fd5b5061037860048036038101906103739190611f04565b611154565b60405161038b97969594939291906120da565b60405180910390f35b3480156103a057600080fd5b506103bb60048036038101906103b69190611f04565b61159b565b6040516103cf989796959493929190612165565b60405180910390f35b3480156103e457600080fd5b506103ed6117a8565b6040516103fa9190611d46565b60405180910390f35b34801561040f57600080fd5b506104186117b4565b6040516104259190611d46565b60405180910390f35b34801561043a57600080fd5b50610455600480360381019061045091906121f8565b6117c0565b005b34801561046357600080fd5b5061046c6119fb565b6040516104799190611ee2565b60405180910390f35b34801561048e57600080fd5b50610497611a89565b6040516104a49190611d46565b60405180910390f35b3373ffffffffffffffffffffffffffffffffffffffff16600260009054906101000a900473ffffffffffffffffffffffffffffffffffffffff1673ffffffffffffffffffffffffffffffffffffffff161461053d576040517f08c379a00000000000000000000000000000000000000000000000000000000081526004016105349061232f565b60405180910390fd5b6105476000611a96565b60006105536000611aac565b90506000600760008773ffffffffffffffffffffffffffffffffffffffff1673ffffffffffffffffffffffffffffffffffffffff168152602001908152602001600020905060008160040154146105a957600080fd5b60018160040181905550848160010190816105c4919061255b565b50838160020190816105d6919061255b565b50858160030160006101000a81548173ffffffffffffffffffffffffffffffffffffffff021916908373ffffffffffffffffffffffffffffffffffffffff16021790555081816000018190555084816001019081610634919061255b565b506103e8816006018190555082816007019081610651919061255b565b5060008160050160006101000a81548160ff0219169083151502179055506006869080600181540180825580915050600190039060005260206000200160009091909190916101000a81548173ffffffffffffffffffffffffffffffffffffffff021916908373ffffffffffffffffffffffffffffffffffffffff160217905550817ff5f39971dd62d9929e3a9feaa6bb77fe7c7da0001babff8a65a7e51ad0201c1986868985600401548660050160009054906101000a900460ff1687600601548a604051610727979695949392919061262d565b60405180910390a2505050505050565b6000600680549050905090565b6003818154811061075457600080fd5b906000526020600020016000915054906101000a900473ffffffffffffffffffffffffffffffffffffffff1681565b6006818154811061079357600080fd5b906000526020600020016000915054906101000a900473ffffffffffffffffffffffffffffffffffffffff1681565b600260009054906101000a900473ffffffffffffffffffffffffffffffffffffffff1681565b6000600760003373ffffffffffffffffffffffffffffffffffffffff1673ffffffffffffffffffffffffffffffffffffffff16815260200190815260200160002090508060050160009054906101000a900460ff161561087d576040517f08c379a0000000000000000000000000000000000000000000000000000000008152600401610874906126fd565b60405180910390fd5b60008160040154036108c4576040517f08c379a00000000000000000000000000000000000000000000000000000000081526004016108bb9061278f565b60405180910390fd5b60018160050160006101000a81548160ff0219169083151502179055508181600601819055506005339080600181540180825580915050600190039060005260206000200160009091909190916101000a81548173ffffffffffffffffffffffffffffffffffffffff021916908373ffffffffffffffffffffffffffffffffffffffff1602179055508060040154600460008573ffffffffffffffffffffffffffffffffffffffff1673ffffffffffffffffffffffffffffffffffffffff16815260200190815260200160002060040160008282546109a391906127de565b92505081905550505050565b60606003805480602002602001604051908101604052809291908181526020018280548015610a3357602002820191906000526020600020905b8160009054906101000a900473ffffffffffffffffffffffffffffffffffffffff1673ffffffffffffffffffffffffffffffffffffffff16815260200190600101908083116109e9575b5050505050905090565b60058181548110610a4d57600080fd5b906000526020600020016000915054906101000a900473ffffffffffffffffffffffffffffffffffffffff1681565b6004602052806000526040600020600091509050806000015490806001018054610aa59061237e565b80601f0160208091040260200160405190810160405280929190818152602001828054610ad19061237e565b8015610b1e5780601f10610af357610100808354040283529160200191610b1e565b820191906000526020600020905b815481529060010190602001808311610b0157829003601f168201915b505050505090806002018054610b339061237e565b80601f0160208091040260200160405190810160405280929190818152602001828054610b5f9061237e565b8015610bac5780601f10610b8157610100808354040283529160200191610bac565b820191906000526020600020905b815481529060010190602001808311610b8f57829003601f168201915b505050505090806003018054610bc19061237e565b80601f0160208091040260200160405190810160405280929190818152602001828054610bed9061237e565b8015610c3a5780601f10610c0f57610100808354040283529160200191610c3a565b820191906000526020600020905b815481529060010190602001808311610c1d57829003601f168201915b5050505050908060040154908060050160009054906101000a900473ffffffffffffffffffffffffffffffffffffffff1690806006018054610c7b9061237e565b80601f0160208091040260200160405190810160405280929190818152602001828054610ca79061237e565b8015610cf45780601f10610cc957610100808354040283529160200191610cf4565b820191906000526020600020905b815481529060010190602001808311610cd757829003601f168201915b5050505050905087565b60606005805480602002602001604051908101604052809291908181526020018280548015610d8257602002820191906000526020600020905b8160009054906101000a900473ffffffffffffffffffffffffffffffffffffffff1673ffffffffffffffffffffffffffffffffffffffff1681526020019060010190808311610d38575b5050505050905090565b600060608060006060600080600760008973ffffffffffffffffffffffffffffffffffffffff1673ffffffffffffffffffffffffffffffffffffffff16815260200190815260200160002060000154600760008a73ffffffffffffffffffffffffffffffffffffffff1673ffffffffffffffffffffffffffffffffffffffff168152602001908152602001600020600101600760008b73ffffffffffffffffffffffffffffffffffffffff1673ffffffffffffffffffffffffffffffffffffffff168152602001908152602001600020600201600760008c73ffffffffffffffffffffffffffffffffffffffff1673ffffffffffffffffffffffffffffffffffffffff16815260200190815260200160002060030160009054906101000a900473ffffffffffffffffffffffffffffffffffffffff16600760008d73ffffffffffffffffffffffffffffffffffffffff1673ffffffffffffffffffffffffffffffffffffffff168152602001908152602001600020600701600760008e73ffffffffffffffffffffffffffffffffffffffff1673ffffffffffffffffffffffffffffffffffffffff16815260200190815260200160002060040154600760008f73ffffffffffffffffffffffffffffffffffffffff1673ffffffffffffffffffffffffffffffffffffffff16815260200190815260200160002060050160009054906101000a900460ff16858054610fa39061237e565b80601f0160208091040260200160405190810160405280929190818152602001828054610fcf9061237e565b801561101c5780601f10610ff15761010080835404028352916020019161101c565b820191906000526020600020905b815481529060010190602001808311610fff57829003601f168201915b5050505050955084805461102f9061237e565b80601f016020809104026020016040519081016040528092919081815260200182805461105b9061237e565b80156110a85780601f1061107d576101008083540402835291602001916110a8565b820191906000526020600020905b81548152906001019060200180831161108b57829003601f168201915b505050505094508280546110bb9061237e565b80601f01602080910402602001604051908101604052809291908181526020018280546110e79061237e565b80156111345780601f1061110957610100808354040283529160200191611134565b820191906000526020600020905b81548152906001019060200180831161111757829003601f168201915b505050505092509650965096509650965096509650919395979092949650565b60608060006060600060606000600460008973ffffffffffffffffffffffffffffffffffffffff1673ffffffffffffffffffffffffffffffffffffffff168152602001908152602001600020600101600460008a73ffffffffffffffffffffffffffffffffffffffff1673ffffffffffffffffffffffffffffffffffffffff168152602001908152602001600020600201600460008b73ffffffffffffffffffffffffffffffffffffffff1673ffffffffffffffffffffffffffffffffffffffff16815260200190815260200160002060000154600460008c73ffffffffffffffffffffffffffffffffffffffff1673ffffffffffffffffffffffffffffffffffffffff168152602001908152602001600020600301600460008d73ffffffffffffffffffffffffffffffffffffffff1673ffffffffffffffffffffffffffffffffffffffff16815260200190815260200160002060040154600460008e73ffffffffffffffffffffffffffffffffffffffff1673ffffffffffffffffffffffffffffffffffffffff168152602001908152602001600020600601600460008f73ffffffffffffffffffffffffffffffffffffffff1673ffffffffffffffffffffffffffffffffffffffff16815260200190815260200160002060050160009054906101000a900473ffffffffffffffffffffffffffffffffffffffff1686805461135e9061237e565b80601f016020809104026020016040519081016040528092919081815260200182805461138a9061237e565b80156113d75780601f106113ac576101008083540402835291602001916113d7565b820191906000526020600020905b8154815290600101906020018083116113ba57829003601f168201915b505050505096508580546113ea9061237e565b80601f01602080910402602001604051908101604052809291908181526020018280546114169061237e565b80156114635780601f1061143857610100808354040283529160200191611463565b820191906000526020600020905b81548152906001019060200180831161144657829003601f168201915b505050505095508380546114769061237e565b80601f01602080910402602001604051908101604052809291908181526020018280546114a29061237e565b80156114ef5780601f106114c4576101008083540402835291602001916114ef565b820191906000526020600020905b8154815290600101906020018083116114d257829003601f168201915b505050505093508180546115029061237e565b80601f016020809104026020016040519081016040528092919081815260200182805461152e9061237e565b801561157b5780601f106115505761010080835404028352916020019161157b565b820191906000526020600020905b81548152906001019060200180831161155e57829003601f168201915b505050505091509650965096509650965096509650919395979092949650565b60076020528060005260406000206000915090508060000154908060010180546115c49061237e565b80601f01602080910402602001604051908101604052809291908181526020018280546115f09061237e565b801561163d5780601f106116125761010080835404028352916020019161163d565b820191906000526020600020905b81548152906001019060200180831161162057829003601f168201915b5050505050908060020180546116529061237e565b80601f016020809104026020016040519081016040528092919081815260200182805461167e9061237e565b80156116cb5780601f106116a0576101008083540402835291602001916116cb565b820191906000526020600020905b8154815290600101906020018083116116ae57829003601f168201915b5050505050908060030160009054906101000a900473ffffffffffffffffffffffffffffffffffffffff16908060040154908060050160009054906101000a900460ff16908060060154908060070180546117259061237e565b80601f01602080910402602001604051908101604052809291908181526020018280546117519061237e565b801561179e5780601f106117735761010080835404028352916020019161179e565b820191906000526020600020905b81548152906001019060200180831161178157829003601f168201915b5050505050905088565b60018060000154905081565b60008060000154905081565b3373ffffffffffffffffffffffffffffffffffffffff16600260009054906101000a900473ffffffffffffffffffffffffffffffffffffffff1673ffffffffffffffffffffffffffffffffffffffff1614611850576040517f08c379a000000000000000000000000000000000000000000000000000000000815260040161184790612884565b60405180910390fd5b61185a6001611a96565b60006118666001611aac565b90506000600460008873ffffffffffffffffffffffffffffffffffffffff1673ffffffffffffffffffffffffffffffffffffffff1681526020019081526020016000209050858160010190816118bc919061255b565b50848160020190816118ce919061255b565b50818160000181905550828160030190816118e9919061255b565b5060008160040181905550868160050160006101000a81548173ffffffffffffffffffffffffffffffffffffffff021916908373ffffffffffffffffffffffffffffffffffffffff16021790555083816006019081611948919061255b565b506003879080600181540180825580915050600190039060005260206000200160009091909190916101000a81548173ffffffffffffffffffffffffffffffffffffffff021916908373ffffffffffffffffffffffffffffffffffffffff160217905550817fd297f12b256bb8485a6013fb5e302017018123e99a0ebb20756c09e1707b4b9087878685600401548c8a6040516119ea969594939291906128a4565b60405180910390a250505050505050565b60606006805480602002602001604051908101604052809291908181526020018280548015611a7f57602002820191906000526020600020905b8160009054906101000a900473ffffffffffffffffffffffffffffffffffffffff1673ffffffffffffffffffffffffffffffffffffffff1681526020019060010190808311611a35575b5050505050905090565b6000600380549050905090565b6001816000016000828254019250508190555050565b600081600001549050919050565b6000604051905090565b600080fd5b600080fd5b600073ffffffffffffffffffffffffffffffffffffffff82169050919050565b6000611af982611ace565b9050919050565b611b0981611aee565b8114611b1457600080fd5b50565b600081359050611b2681611b00565b92915050565b600080fd5b600080fd5b6000601f19601f8301169050919050565b7f4e487b7100000000000000000000000000000000000000000000000000000000600052604160045260246000fd5b611b7f82611b36565b810181811067ffffffffffffffff82111715611b9e57611b9d611b47565b5b80604052505050565b6000611bb1611aba565b9050611bbd8282611b76565b919050565b600067ffffffffffffffff821115611bdd57611bdc611b47565b5b611be682611b36565b9050602081019050919050565b82818337600083830152505050565b6000611c15611c1084611bc2565b611ba7565b905082815260208101848484011115611c3157611c30611b31565b5b611c3c848285611bf3565b509392505050565b600082601f830112611c5957611c58611b2c565b5b8135611c69848260208601611c02565b91505092915050565b60008060008060808587031215611c8c57611c8b611ac4565b5b6000611c9a87828801611b17565b945050602085013567ffffffffffffffff811115611cbb57611cba611ac9565b5b611cc787828801611c44565b935050604085013567ffffffffffffffff811115611ce857611ce7611ac9565b5b611cf487828801611c44565b925050606085013567ffffffffffffffff811115611d1557611d14611ac9565b5b611d2187828801611c44565b91505092959194509250565b6000819050919050565b611d4081611d2d565b82525050565b6000602082019050611d5b6000830184611d37565b92915050565b611d6a81611d2d565b8114611d7557600080fd5b50565b600081359050611d8781611d61565b92915050565b600060208284031215611da357611da2611ac4565b5b6000611db184828501611d78565b91505092915050565b611dc381611aee565b82525050565b6000602082019050611dde6000830184611dba565b92915050565b60008060408385031215611dfb57611dfa611ac4565b5b6000611e0985828601611b17565b9250506020611e1a85828601611d78565b9150509250929050565b600081519050919050565b600082825260208201905092915050565b6000819050602082019050919050565b611e5981611aee565b82525050565b6000611e6b8383611e50565b60208301905092915050565b6000602082019050919050565b6000611e8f82611e24565b611e998185611e2f565b9350611ea483611e40565b8060005b83811015611ed5578151611ebc8882611e5f565b9750611ec783611e77565b925050600181019050611ea8565b5085935050505092915050565b60006020820190508181036000830152611efc8184611e84565b905092915050565b600060208284031215611f1a57611f19611ac4565b5b6000611f2884828501611b17565b91505092915050565b600081519050919050565b600082825260208201905092915050565b60005b83811015611f6b578082015181840152602081019050611f50565b60008484015250505050565b6000611f8282611f31565b611f8c8185611f3c565b9350611f9c818560208601611f4d565b611fa581611b36565b840191505092915050565b600060e082019050611fc5600083018a611d37565b8181036020830152611fd78189611f77565b90508181036040830152611feb8188611f77565b90508181036060830152611fff8187611f77565b905061200e6080830186611d37565b61201b60a0830185611dba565b81810360c083015261202d8184611f77565b905098975050505050505050565b60008115159050919050565b6120508161203b565b82525050565b600060e08201905061206b600083018a611d37565b818103602083015261207d8189611f77565b905081810360408301526120918188611f77565b90506120a06060830187611dba565b81810360808301526120b28186611f77565b90506120c160a0830185611d37565b6120ce60c0830184612047565b98975050505050505050565b600060e08201905081810360008301526120f4818a611f77565b905081810360208301526121088189611f77565b90506121176040830188611d37565b81810360608301526121298187611f77565b90506121386080830186611d37565b81810360a083015261214a8185611f77565b905061215960c0830184611dba565b98975050505050505050565b60006101008201905061217b600083018b611d37565b818103602083015261218d818a611f77565b905081810360408301526121a18189611f77565b90506121b06060830188611dba565b6121bd6080830187611d37565b6121ca60a0830186612047565b6121d760c0830185611d37565b81810360e08301526121e98184611f77565b90509998505050505050505050565b600080600080600060a0868803121561221457612213611ac4565b5b600061222288828901611b17565b955050602086013567ffffffffffffffff81111561224357612242611ac9565b5b61224f88828901611c44565b945050604086013567ffffffffffffffff8111156122705761226f611ac9565b5b61227c88828901611c44565b935050606086013567ffffffffffffffff81111561229d5761229c611ac9565b5b6122a988828901611c44565b925050608086013567ffffffffffffffff8111156122ca576122c9611ac9565b5b6122d688828901611c44565b9150509295509295909350565b7f4f6e6c79206f7267616e697a65722063616e206372656174652020766f746572600082015250565b6000612319602083611f3c565b9150612324826122e3565b602082019050919050565b600060208201905081810360008301526123488161230c565b9050919050565b7f4e487b7100000000000000000000000000000000000000000000000000000000600052602260045260246000fd5b6000600282049050600182168061239657607f821691505b6020821081036123a9576123a861234f565b5b50919050565b60008190508160005260206000209050919050565b60006020601f8301049050919050565b600082821b905092915050565b6000600883026124117fffffffffffffffffffffffffffffffffffffffffffffffffffffffffffffffff826123d4565b61241b86836123d4565b95508019841693508086168417925050509392505050565b6000819050919050565b600061245861245361244e84611d2d565b612433565b611d2d565b9050919050565b6000819050919050565b6124728361243d565b61248661247e8261245f565b8484546123e1565b825550505050565b600090565b61249b61248e565b6124a6818484612469565b505050565b5b818110156124ca576124bf600082612493565b6001810190506124ac565b5050565b601f82111561250f576124e0816123af565b6124e9846123c4565b810160208510156124f8578190505b61250c612504856123c4565b8301826124ab565b50505b505050565b600082821c905092915050565b600061253260001984600802612514565b1980831691505092915050565b600061254b8383612521565b9150826002028217905092915050565b61256482611f31565b67ffffffffffffffff81111561257d5761257c611b47565b5b612587825461237e565b6125928282856124ce565b600060209050601f8311600181146125c557600084156125b3578287015190505b6125bd858261253f565b865550612625565b601f1984166125d3866123af565b60005b828110156125fb578489015182556001820191506020850194506020810190506125d6565b868310156126185784890151612614601f891682612521565b8355505b6001600288020188555050505b505050505050565b600060e0820190508181036000830152612647818a611f77565b9050818103602083015261265b8189611f77565b905061266a6040830188611dba565b6126776060830187611d37565b6126846080830186612047565b61269160a0830185611d37565b81810360c08301526126a38184611f77565b905098975050505050505050565b7f596f75206861766520616c726561647920766f74656400000000000000000000600082015250565b60006126e7601683611f3c565b91506126f2826126b1565b602082019050919050565b60006020820190508181036000830152612716816126da565b9050919050565b7f596f7520617265206e6f7420616c6c6f77656420746f20766f74652e20476f6f60008201527f646279652e000000000000000000000000000000000000000000000000000000602082015250565b6000612779602583611f3c565b91506127848261271d565b604082019050919050565b600060208201905081810360008301526127a88161276c565b9050919050565b7f4e487b7100000000000000000000000000000000000000000000000000000000600052601160045260246000fd5b60006127e982611d2d565b91506127f483611d2d565b925082820190508082111561280c5761280b6127af565b5b92915050565b7f4f6e6c79206f7267616e697a65722063616e20617574686f72697a652061206360008201527f616e646964617465212120000000000000000000000000000000000000000000602082015250565b600061286e602b83611f3c565b915061287982612812565b604082019050919050565b6000602082019050818103600083015261289d81612861565b9050919050565b600060c08201905081810360008301526128be8189611f77565b905081810360208301526128d28188611f77565b905081810360408301526128e68187611f77565b90506128f56060830186611d37565b6129026080830185611dba565b81810360a08301526129148184611f77565b905097965050505050505056fea2646970667358221220b28ca1faf4d536da47ab6c266ac6b88e2d3e881f741f7d496311d8fb39c3197364736f6c63430008120033",
  "linkReferences": {},
  "deployedLinkReferences": {}
}