{
  "_format": "hh-sol-artifact-1",
  "contractName": "Create",
  "sourceName": "contracts/VotingContract.sol",
  "abi": [
    {
      "inputs": [],
      "stateMutability": "nonpayable",
      "type": "constructor"
    },
    {
      "anonymous": false,
      "inputs": [
        {
          "indexed": true,
          "internalType": "uint256",
          "name": "candidateId",
          "type": "uint256"
        },
        {
          "indexed": false,
          "internalType": "string",
          "name": "age",
          "type": "string"
        },
        {
          "indexed": false,
          "internalType": "string",
          "name": "name",
          "type": "string"
        },
        {
          "indexed": false,
          "internalType": "string",
          "name": "image",
          "type": "string"
        },
        {
          "indexed": false,
          "internalType": "uint256",
          "name": "voteCount",
          "type": "uint256"
        },
        {
          "indexed": false,
          "internalType": "address",
          "name": "_address",
          "type": "address"
        },
        {
          "indexed": false,
          "internalType": "string",
          "name": "ipfs",
          "type": "string"
        }
      ],
      "name": "CandidateCreate",
      "type": "event"
    },
    {
      "anonymous": false,
      "inputs": [
        {
          "indexed": true,
          "internalType": "uint256",
          "name": "voter_voterId",
          "type": "uint256"
        },
        {
          "indexed": false,
          "internalType": "string",
          "name": "voter_name",
          "type": "string"
        },
        {
          "indexed": false,
          "internalType": "string",
          "name": "voter_image",
          "type": "string"
        },
        {
          "indexed": false,
          "internalType": "address",
          "name": "voter_address",
          "type": "address"
        },
        {
          "indexed": false,
          "internalType": "uint256",
          "name": "voter_allowed",
          "type": "uint256"
        },
        {
          "indexed": false,
          "internalType": "bool",
          "name": "voter_voted",
          "type": "bool"
        },
        {
          "indexed": false,
          "internalType": "uint256",
          "name": "voter_vote",
          "type": "uint256"
        },
        {
          "indexed": false,
          "internalType": "string",
          "name": "voter_ipfs",
          "type": "string"
        }
      ],
      "name": "VoterCreated",
      "type": "event"
    },
    {
      "inputs": [],
      "name": "_candidateId",
      "outputs": [
        {
          "internalType": "uint256",
          "name": "_value",
          "type": "uint256"
        }
      ],
      "stateMutability": "view",
      "type": "function"
    },
    {
      "inputs": [],
      "name": "_voterId",
      "outputs": [
        {
          "internalType": "uint256",
          "name": "_value",
          "type": "uint256"
        }
      ],
      "stateMutability": "view",
      "type": "function"
    },
    {
      "inputs": [
        {
          "internalType": "uint256",
          "name": "",
          "type": "uint256"
        }
      ],
      "name": "candidateAddress",
      "outputs": [
        {
          "internalType": "address",
          "name": "",
          "type": "address"
        }
      ],
      "stateMutability": "view",
      "type": "function"
    },
    {
      "inputs": [
        {
          "internalType": "address",
          "name": "",
          "type": "address"
        }
      ],
      "name": "candidates",
      "outputs": [
        {
          "internalType": "uint256",
          "name": "candidateId",
          "type": "uint256"
        },
        {
          "internalType": "string",
          "name": "age",
          "type": "string"
        },
        {
          "internalType": "string",
          "name": "name",
          "type": "string"
        },
        {
          "internalType": "string",
          "name": "image",
          "type": "string"
        },
        {
          "internalType": "uint256",
          "name": "voteCount",
          "type": "uint256"
        },
        {
          "internalType": "address",
          "name": "_address",
          "type": "address"
        },
        {
          "internalType": "string",
          "name": "ipfs",
          "type": "string"
        }
      ],
      "stateMutability": "view",
      "type": "function"
    },
    {
      "inputs": [],
      "name": "getCandidate",
      "outputs": [
        {
          "internalType": "address[]",
          "name": "",
          "type": "address[]"
        }
      ],
      "stateMutability": "view",
      "type": "function"
    },
    {
      "inputs": [],
      "name": "getCandidateLength",
      "outputs": [
        {
          "internalType": "uint256",
          "name": "",
          "type": "uint256"
        }
      ],
      "stateMutability": "view",
      "type": "function"
    },
    {
      "inputs": [],
      "name": "getVotedVoterList",
      "outputs": [
        {
          "internalType": "address[]",
          "name": "",
          "type": "address[]"
        }
      ],
      "stateMutability": "view",
      "type": "function"
    },
    {
      "inputs": [
        {
          "internalType": "address",
          "name": "_address",
          "type": "address"
        }
      ],
      "name": "getVoterData",
      "outputs": [
        {
          "internalType": "uint256",
          "name": "",
          "type": "uint256"
        },
        {
          "internalType": "string",
          "name": "",
          "type": "string"
        },
        {
          "internalType": "string",
          "name": "",
          "type": "string"
        },
        {
          "internalType": "address",
          "name": "",
          "type": "address"
        },
        {
          "internalType": "string",
          "name": "",
          "type": "string"
        },
        {
          "internalType": "uint256",
          "name": "",
          "type": "uint256"
        },
        {
          "internalType": "bool",
          "name": "",
          "type": "bool"
        }
      ],
      "stateMutability": "view",
      "type": "function"
    },
    {
      "inputs": [],
      "name": "getVoterLength",
      "outputs": [
        {
          "internalType": "uint256",
          "name": "",
          "type": "uint256"
        }
      ],
      "stateMutability": "view",
      "type": "function"
    },
    {
      "inputs": [],
      "name": "getVoters",
      "outputs": [
        {
          "internalType": "address[]",
          "name": "",
          "type": "address[]"
        }
      ],
      "stateMutability": "view",
      "type": "function"
    },
    {
      "inputs": [
        {
          "internalType": "address",
          "name": "_address",
          "type": "address"
        }
      ],
      "name": "getcandidatedata",
      "outputs": [
        {
          "internalType": "string",
          "name": "",
          "type": "string"
        },
        {
          "internalType": "string",
          "name": "",
          "type": "string"
        },
        {
          "internalType": "uint256",
          "name": "",
          "type": "uint256"
        },
        {
          "internalType": "string",
          "name": "",
          "type": "string"
        },
        {
          "internalType": "uint256",
          "name": "",
          "type": "uint256"
        },
        {
          "internalType": "string",
          "name": "",
          "type": "string"
        },
        {
          "internalType": "address",
          "name": "",
          "type": "address"
        }
      ],
      "stateMutability": "view",
      "type": "function"
    },
    {
      "inputs": [
        {
          "internalType": "address",
          "name": "_address",
          "type": "address"
        },
        {
          "internalType": "string",
          "name": "_age",
          "type": "string"
        },
        {
          "internalType": "string",
          "name": "_name",
          "type": "string"
        },
        {
          "internalType": "string",
          "name": "_ipfs",
          "type": "string"
        },
        {
          "internalType": "string",
          "name": "_image",
          "type": "string"
        }
      ],
      "name": "setCandidate",
      "outputs": [],
      "stateMutability": "nonpayable",
      "type": "function"
    },
    {
      "inputs": [
        {
          "internalType": "address",
          "name": "_candidateAddress",
          "type": "address"
        },
        {
          "internalType": "uint256",
          "name": "_candidateVoteId",
          "type": "uint256"
        }
      ],
      "name": "vote",
      "outputs": [],
      "stateMutability": "nonpayable",
      "type": "function"
    },
    {
      "inputs": [
        {
          "internalType": "uint256",
          "name": "",
          "type": "uint256"
        }
      ],
      "name": "votedVoters",
      "outputs": [
        {
          "internalType": "address",
          "name": "",
          "type": "address"
        }
      ],
      "stateMutability": "view",
      "type": "function"
    },
    {
      "inputs": [
        {
          "internalType": "address",
          "name": "_address",
          "type": "address"
        },
        {
          "internalType": "string",
          "name": "_name",
          "type": "string"
        },
        {
          "internalType": "string",
          "name": "_image",
          "type": "string"
        },
        {
          "internalType": "string",
          "name": "_ipfs",
          "type": "string"
        }
      ],
      "name": "voterRight",
      "outputs": [],
      "stateMutability": "nonpayable",
      "type": "function"
    },
    {
      "inputs": [
        {
          "internalType": "address",
          "name": "",
          "type": "address"
        }
      ],
      "name": "voters",
      "outputs": [
        {
          "internalType": "uint256",
          "name": "voter_voterId",
          "type": "uint256"
        },
        {
          "internalType": "string",
          "name": "voter_name",
          "type": "string"
        },
        {
          "internalType": "string",
          "name": "voter_image",
          "type": "string"
        },
        {
          "internalType": "address",
          "name": "voter_address",
          "type": "address"
        },
        {
          "internalType": "uint256",
          "name": "voter_allowed",
          "type": "uint256"
        },
        {
          "internalType": "bool",
          "name": "voter_voted",
          "type": "bool"
        },
        {
          "internalType": "uint256",
          "name": "voter_vote",
          "type": "uint256"
        },
        {
          "internalType": "string",
          "name": "voter_ipfs",
          "type": "string"
        }
      ],
      "stateMutability": "view",
      "type": "function"
    },
    {
      "inputs": [
        {
          "internalType": "uint256",
          "name": "",
          "type": "uint256"
        }
      ],
      "name": "votersAddress",
      "outputs": [
        {
          "internalType": "address",
          "name": "",
          "type": "address"
        }
      ],
      "stateMutability": "view",
      "type": "function"
    },
    {
      "inputs": [],
      "name": "votingOrganizer",
      "outputs": [
        {
          "internalType": "address",
          "name": "",
          "type": "address"
        }
      ],
      "stateMutability": "view",
      "type": "function"
    }
  ],
  "bytecode": "0x608060405234801561001057600080fd5b5033600260006101000a81548173ffffffffffffffffffffffffffffffffffffffff021916908373ffffffffffffffffffffffffffffffffffffffff160217905550612872806100616000396000f3fe608060405234801561001057600080fd5b50600436106101165760003560e01c80638e945685116100a2578063a738896711610071578063a738896714610334578063b9be315214610352578063c91ec71214610370578063cdd722531461038c578063f7522a83146103aa57610116565b80638e945685146102735780638fb4cd8014610291578063a1870d71146102c7578063a3ec138d146102fd57610116565b80635cc48aa7116100e95780635cc48aa7146101b55780635f74bbde146101d357806370218b85146101ef5780637831ffb31461020d5780638ab66a901461023d57610116565b80630361419e1461011b57806305ad45a4146101375780633a88251a1461015557806343242daa14610185575b600080fd5b61013560048036038101906101309190611b8d565b6103c8565b005b61013f610652565b60405161014c9190611c61565b60405180910390f35b61016f600480360381019061016a9190611ca8565b61065f565b60405161017c9190611ce4565b60405180910390f35b61019f600480360381019061019a9190611ca8565b61069e565b6040516101ac9190611ce4565b60405180910390f35b6101bd6106dd565b6040516101ca9190611ce4565b60405180910390f35b6101ed60048036038101906101e89190611cff565b610703565b005b6101f76108ca565b6040516102049190611dfd565b60405180910390f35b61022760048036038101906102229190611ca8565b610958565b6040516102349190611ce4565b60405180910390f35b61025760048036038101906102529190611e1f565b610997565b60405161026a9796959493929190611ecb565b60405180910390f35b61027b610c19565b6040516102889190611dfd565b60405180910390f35b6102ab60048036038101906102a69190611e1f565b610ca7565b6040516102be9796959493929190611f71565b60405180910390f35b6102e160048036038101906102dc9190611e1f565b61106f565b6040516102f49796959493929190611ff5565b60405180910390f35b61031760048036038101906103129190611e1f565b6114b6565b60405161032b989796959493929190612080565b60405180910390f35b61033c6116c3565b6040516103499190611c61565b60405180910390f35b61035a6116cf565b6040516103679190611c61565b60405180910390f35b61038a60048036038101906103859190612113565b6116db565b005b610394611916565b6040516103a19190611dfd565b60405180910390f35b6103b26119a4565b6040516103bf9190611c61565b60405180910390f35b3373ffffffffffffffffffffffffffffffffffffffff16600260009054906101000a900473ffffffffffffffffffffffffffffffffffffffff1673ffffffffffffffffffffffffffffffffffffffff1614610458576040517f08c379a000000000000000000000000000000000000000000000000000000000815260040161044f9061224a565b60405180910390fd5b61046260006119b1565b600061046e60006119c7565b90506000600760008773ffffffffffffffffffffffffffffffffffffffff1673ffffffffffffffffffffffffffffffffffffffff168152602001908152602001600020905060008160040154146104c457600080fd5b60018160040181905550848160010190816104df9190612476565b50838160020190816104f19190612476565b50858160030160006101000a81548173ffffffffffffffffffffffffffffffffffffffff021916908373ffffffffffffffffffffffffffffffffffffffff1602179055508181600001819055508481600101908161054f9190612476565b506103e881600601819055508281600701908161056c9190612476565b5060008160050160006101000a81548160ff0219169083151502179055506006869080600181540180825580915050600190039060005260206000200160009091909190916101000a81548173ffffffffffffffffffffffffffffffffffffffff021916908373ffffffffffffffffffffffffffffffffffffffff160217905550817ff5f39971dd62d9929e3a9feaa6bb77fe7c7da0001babff8a65a7e51ad0201c1986868985600401548660050160009054906101000a900460ff1687600601548a6040516106429796959493929190612548565b60405180910390a2505050505050565b6000600680549050905090565b6003818154811061066f57600080fd5b906000526020600020016000915054906101000a900473ffffffffffffffffffffffffffffffffffffffff1681565b600681815481106106ae57600080fd5b906000526020600020016000915054906101000a900473ffffffffffffffffffffffffffffffffffffffff1681565b600260009054906101000a900473ffffffffffffffffffffffffffffffffffffffff1681565b6000600760003373ffffffffffffffffffffffffffffffffffffffff1673ffffffffffffffffffffffffffffffffffffffff16815260200190815260200160002090508060050160009054906101000a900460ff1615610798576040517f08c379a000000000000000000000000000000000000000000000000000000000815260040161078f90612618565b60405180910390fd5b60008160040154036107df576040517f08c379a00000000000000000000000000000000000000000000000000000000081526004016107d6906126aa565b60405180910390fd5b60018160050160006101000a81548160ff0219169083151502179055508181600601819055506005339080600181540180825580915050600190039060005260206000200160009091909190916101000a81548173ffffffffffffffffffffffffffffffffffffffff021916908373ffffffffffffffffffffffffffffffffffffffff1602179055508060040154600460008573ffffffffffffffffffffffffffffffffffffffff1673ffffffffffffffffffffffffffffffffffffffff16815260200190815260200160002060040160008282546108be91906126f9565b92505081905550505050565b6060600380548060200260200160405190810160405280929190818152602001828054801561094e57602002820191906000526020600020905b8160009054906101000a900473ffffffffffffffffffffffffffffffffffffffff1673ffffffffffffffffffffffffffffffffffffffff1681526020019060010190808311610904575b5050505050905090565b6005818154811061096857600080fd5b906000526020600020016000915054906101000a900473ffffffffffffffffffffffffffffffffffffffff1681565b60046020528060005260406000206000915090508060000154908060010180546109c090612299565b80601f01602080910402602001604051908101604052809291908181526020018280546109ec90612299565b8015610a395780601f10610a0e57610100808354040283529160200191610a39565b820191906000526020600020905b815481529060010190602001808311610a1c57829003601f168201915b505050505090806002018054610a4e90612299565b80601f0160208091040260200160405190810160405280929190818152602001828054610a7a90612299565b8015610ac75780601f10610a9c57610100808354040283529160200191610ac7565b820191906000526020600020905b815481529060010190602001808311610aaa57829003601f168201915b505050505090806003018054610adc90612299565b80601f0160208091040260200160405190810160405280929190818152602001828054610b0890612299565b8015610b555780601f10610b2a57610100808354040283529160200191610b55565b820191906000526020600020905b815481529060010190602001808311610b3857829003601f168201915b5050505050908060040154908060050160009054906101000a900473ffffffffffffffffffffffffffffffffffffffff1690806006018054610b9690612299565b80601f0160208091040260200160405190810160405280929190818152602001828054610bc290612299565b8015610c0f5780601f10610be457610100808354040283529160200191610c0f565b820191906000526020600020905b815481529060010190602001808311610bf257829003601f168201915b5050505050905087565b60606005805480602002602001604051908101604052809291908181526020018280548015610c9d57602002820191906000526020600020905b8160009054906101000a900473ffffffffffffffffffffffffffffffffffffffff1673ffffffffffffffffffffffffffffffffffffffff1681526020019060010190808311610c53575b5050505050905090565b600060608060006060600080600760008973ffffffffffffffffffffffffffffffffffffffff1673ffffffffffffffffffffffffffffffffffffffff16815260200190815260200160002060000154600760008a73ffffffffffffffffffffffffffffffffffffffff1673ffffffffffffffffffffffffffffffffffffffff168152602001908152602001600020600101600760008b73ffffffffffffffffffffffffffffffffffffffff1673ffffffffffffffffffffffffffffffffffffffff168152602001908152602001600020600201600760008c73ffffffffffffffffffffffffffffffffffffffff1673ffffffffffffffffffffffffffffffffffffffff16815260200190815260200160002060030160009054906101000a900473ffffffffffffffffffffffffffffffffffffffff16600760008d73ffffffffffffffffffffffffffffffffffffffff1673ffffffffffffffffffffffffffffffffffffffff168152602001908152602001600020600701600760008e73ffffffffffffffffffffffffffffffffffffffff1673ffffffffffffffffffffffffffffffffffffffff16815260200190815260200160002060040154600760008f73ffffffffffffffffffffffffffffffffffffffff1673ffffffffffffffffffffffffffffffffffffffff16815260200190815260200160002060050160009054906101000a900460ff16858054610ebe90612299565b80601f0160208091040260200160405190810160405280929190818152602001828054610eea90612299565b8015610f375780601f10610f0c57610100808354040283529160200191610f37565b820191906000526020600020905b815481529060010190602001808311610f1a57829003601f168201915b50505050509550848054610f4a90612299565b80601f0160208091040260200160405190810160405280929190818152602001828054610f7690612299565b8015610fc35780601f10610f9857610100808354040283529160200191610fc3565b820191906000526020600020905b815481529060010190602001808311610fa657829003601f168201915b50505050509450828054610fd690612299565b80601f016020809104026020016040519081016040528092919081815260200182805461100290612299565b801561104f5780601f106110245761010080835404028352916020019161104f565b820191906000526020600020905b81548152906001019060200180831161103257829003601f168201915b505050505092509650965096509650965096509650919395979092949650565b60608060006060600060606000600460008973ffffffffffffffffffffffffffffffffffffffff1673ffffffffffffffffffffffffffffffffffffffff168152602001908152602001600020600101600460008a73ffffffffffffffffffffffffffffffffffffffff1673ffffffffffffffffffffffffffffffffffffffff168152602001908152602001600020600201600460008b73ffffffffffffffffffffffffffffffffffffffff1673ffffffffffffffffffffffffffffffffffffffff16815260200190815260200160002060000154600460008c73ffffffffffffffffffffffffffffffffffffffff1673ffffffffffffffffffffffffffffffffffffffff168152602001908152602001600020600301600460008d73ffffffffffffffffffffffffffffffffffffffff1673ffffffffffffffffffffffffffffffffffffffff16815260200190815260200160002060040154600460008e73ffffffffffffffffffffffffffffffffffffffff1673ffffffffffffffffffffffffffffffffffffffff168152602001908152602001600020600601600460008f73ffffffffffffffffffffffffffffffffffffffff1673ffffffffffffffffffffffffffffffffffffffff16815260200190815260200160002060050160009054906101000a900473ffffffffffffffffffffffffffffffffffffffff1686805461127990612299565b80601f01602080910402602001604051908101604052809291908181526020018280546112a590612299565b80156112f25780601f106112c7576101008083540402835291602001916112f2565b820191906000526020600020905b8154815290600101906020018083116112d557829003601f168201915b5050505050965085805461130590612299565b80601f016020809104026020016040519081016040528092919081815260200182805461133190612299565b801561137e5780601f106113535761010080835404028352916020019161137e565b820191906000526020600020905b81548152906001019060200180831161136157829003601f168201915b5050505050955083805461139190612299565b80601f01602080910402602001604051908101604052809291908181526020018280546113bd90612299565b801561140a5780601f106113df5761010080835404028352916020019161140a565b820191906000526020600020905b8154815290600101906020018083116113ed57829003601f168201915b5050505050935081805461141d90612299565b80601f016020809104026020016040519081016040528092919081815260200182805461144990612299565b80156114965780601f1061146b57610100808354040283529160200191611496565b820191906000526020600020905b81548152906001019060200180831161147957829003601f168201915b505050505091509650965096509650965096509650919395979092949650565b60076020528060005260406000206000915090508060000154908060010180546114df90612299565b80601f016020809104026020016040519081016040528092919081815260200182805461150b90612299565b80156115585780601f1061152d57610100808354040283529160200191611558565b820191906000526020600020905b81548152906001019060200180831161153b57829003601f168201915b50505050509080600201805461156d90612299565b80601f016020809104026020016040519081016040528092919081815260200182805461159990612299565b80156115e65780601f106115bb576101008083540402835291602001916115e6565b820191906000526020600020905b8154815290600101906020018083116115c957829003601f168201915b5050505050908060030160009054906101000a900473ffffffffffffffffffffffffffffffffffffffff16908060040154908060050160009054906101000a900460ff169080600601549080600701805461164090612299565b80601f016020809104026020016040519081016040528092919081815260200182805461166c90612299565b80156116b95780601f1061168e576101008083540402835291602001916116b9565b820191906000526020600020905b81548152906001019060200180831161169c57829003601f168201915b5050505050905088565b60018060000154905081565b60008060000154905081565b3373ffffffffffffffffffffffffffffffffffffffff16600260009054906101000a900473ffffffffffffffffffffffffffffffffffffffff1673ffffffffffffffffffffffffffffffffffffffff161461176b576040517f08c379a00000000000000000000000000000000000000000000000000000000081526004016117629061279f565b60405180910390fd5b61177560016119b1565b600061178160016119c7565b90506000600460008873ffffffffffffffffffffffffffffffffffffffff1673ffffffffffffffffffffffffffffffffffffffff1681526020019081526020016000209050858160010190816117d79190612476565b50848160020190816117e99190612476565b50818160000181905550828160030190816118049190612476565b5060008160040181905550868160050160006101000a81548173ffffffffffffffffffffffffffffffffffffffff021916908373ffffffffffffffffffffffffffffffffffffffff160217905550838160060190816118639190612476565b506003879080600181540180825580915050600190039060005260206000200160009091909190916101000a81548173ffffffffffffffffffffffffffffffffffffffff021916908373ffffffffffffffffffffffffffffffffffffffff160217905550817fd297f12b256bb8485a6013fb5e302017018123e99a0ebb20756c09e1707b4b9087878685600401548c8a604051611905969594939291906127bf565b60405180910390a250505050505050565b6060600680548060200260200160405190810160405280929190818152602001828054801561199a57602002820191906000526020600020905b8160009054906101000a900473ffffffffffffffffffffffffffffffffffffffff1673ffffffffffffffffffffffffffffffffffffffff1681526020019060010190808311611950575b5050505050905090565b6000600380549050905090565b6001816000016000828254019250508190555050565b600081600001549050919050565b6000604051905090565b600080fd5b600080fd5b600073ffffffffffffffffffffffffffffffffffffffff82169050919050565b6000611a14826119e9565b9050919050565b611a2481611a09565b8114611a2f57600080fd5b50565b600081359050611a4181611a1b565b92915050565b600080fd5b600080fd5b6000601f19601f8301169050919050565b7f4e487b7100000000000000000000000000000000000000000000000000000000600052604160045260246000fd5b611a9a82611a51565b810181811067ffffffffffffffff82111715611ab957611ab8611a62565b5b80604052505050565b6000611acc6119d5565b9050611ad88282611a91565b919050565b600067ffffffffffffffff821115611af857611af7611a62565b5b611b0182611a51565b9050602081019050919050565b82818337600083830152505050565b6000611b30611b2b84611add565b611ac2565b905082815260208101848484011115611b4c57611b4b611a4c565b5b611b57848285611b0e565b509392505050565b600082601f830112611b7457611b73611a47565b5b8135611b84848260208601611b1d565b91505092915050565b60008060008060808587031215611ba757611ba66119df565b5b6000611bb587828801611a32565b945050602085013567ffffffffffffffff811115611bd657611bd56119e4565b5b611be287828801611b5f565b935050604085013567ffffffffffffffff811115611c0357611c026119e4565b5b611c0f87828801611b5f565b925050606085013567ffffffffffffffff811115611c3057611c2f6119e4565b5b611c3c87828801611b5f565b91505092959194509250565b6000819050919050565b611c5b81611c48565b82525050565b6000602082019050611c766000830184611c52565b92915050565b611c8581611c48565b8114611c9057600080fd5b50565b600081359050611ca281611c7c565b92915050565b600060208284031215611cbe57611cbd6119df565b5b6000611ccc84828501611c93565b91505092915050565b611cde81611a09565b82525050565b6000602082019050611cf96000830184611cd5565b92915050565b60008060408385031215611d1657611d156119df565b5b6000611d2485828601611a32565b9250506020611d3585828601611c93565b9150509250929050565b600081519050919050565b600082825260208201905092915050565b6000819050602082019050919050565b611d7481611a09565b82525050565b6000611d868383611d6b565b60208301905092915050565b6000602082019050919050565b6000611daa82611d3f565b611db48185611d4a565b9350611dbf83611d5b565b8060005b83811015611df0578151611dd78882611d7a565b9750611de283611d92565b925050600181019050611dc3565b5085935050505092915050565b60006020820190508181036000830152611e178184611d9f565b905092915050565b600060208284031215611e3557611e346119df565b5b6000611e4384828501611a32565b91505092915050565b600081519050919050565b600082825260208201905092915050565b60005b83811015611e86578082015181840152602081019050611e6b565b60008484015250505050565b6000611e9d82611e4c565b611ea78185611e57565b9350611eb7818560208601611e68565b611ec081611a51565b840191505092915050565b600060e082019050611ee0600083018a611c52565b8181036020830152611ef28189611e92565b90508181036040830152611f068188611e92565b90508181036060830152611f1a8187611e92565b9050611f296080830186611c52565b611f3660a0830185611cd5565b81810360c0830152611f488184611e92565b905098975050505050505050565b60008115159050919050565b611f6b81611f56565b82525050565b600060e082019050611f86600083018a611c52565b8181036020830152611f988189611e92565b90508181036040830152611fac8188611e92565b9050611fbb6060830187611cd5565b8181036080830152611fcd8186611e92565b9050611fdc60a0830185611c52565b611fe960c0830184611f62565b98975050505050505050565b600060e082019050818103600083015261200f818a611e92565b905081810360208301526120238189611e92565b90506120326040830188611c52565b81810360608301526120448187611e92565b90506120536080830186611c52565b81810360a08301526120658185611e92565b905061207460c0830184611cd5565b98975050505050505050565b600061010082019050612096600083018b611c52565b81810360208301526120a8818a611e92565b905081810360408301526120bc8189611e92565b90506120cb6060830188611cd5565b6120d86080830187611c52565b6120e560a0830186611f62565b6120f260c0830185611c52565b81810360e08301526121048184611e92565b90509998505050505050505050565b600080600080600060a0868803121561212f5761212e6119df565b5b600061213d88828901611a32565b955050602086013567ffffffffffffffff81111561215e5761215d6119e4565b5b61216a88828901611b5f565b945050604086013567ffffffffffffffff81111561218b5761218a6119e4565b5b61219788828901611b5f565b935050606086013567ffffffffffffffff8111156121b8576121b76119e4565b5b6121c488828901611b5f565b925050608086013567ffffffffffffffff8111156121e5576121e46119e4565b5b6121f188828901611b5f565b9150509295509295909350565b7f4f6e6c79206f7267616e697a65722063616e206372656174652020766f746572600082015250565b6000612234602083611e57565b915061223f826121fe565b602082019050919050565b6000602082019050818103600083015261226381612227565b9050919050565b7f4e487b7100000000000000000000000000000000000000000000000000000000600052602260045260246000fd5b600060028204905060018216806122b157607f821691505b6020821081036122c4576122c361226a565b5b50919050565b60008190508160005260206000209050919050565b60006020601f8301049050919050565b600082821b905092915050565b60006008830261232c7fffffffffffffffffffffffffffffffffffffffffffffffffffffffffffffffff826122ef565b61233686836122ef565b95508019841693508086168417925050509392505050565b6000819050919050565b600061237361236e61236984611c48565b61234e565b611c48565b9050919050565b6000819050919050565b61238d83612358565b6123a16123998261237a565b8484546122fc565b825550505050565b600090565b6123b66123a9565b6123c1818484612384565b505050565b5b818110156123e5576123da6000826123ae565b6001810190506123c7565b5050565b601f82111561242a576123fb816122ca565b612404846122df565b81016020851015612413578190505b61242761241f856122df565b8301826123c6565b50505b505050565b600082821c905092915050565b600061244d6000198460080261242f565b1980831691505092915050565b6000612466838361243c565b9150826002028217905092915050565b61247f82611e4c565b67ffffffffffffffff81111561249857612497611a62565b5b6124a28254612299565b6124ad8282856123e9565b600060209050601f8311600181146124e057600084156124ce578287015190505b6124d8858261245a565b865550612540565b601f1984166124ee866122ca565b60005b82811015612516578489015182556001820191506020850194506020810190506124f1565b86831015612533578489015161252f601f89168261243c565b8355505b6001600288020188555050505b505050505050565b600060e0820190508181036000830152612562818a611e92565b905081810360208301526125768189611e92565b90506125856040830188611cd5565b6125926060830187611c52565b61259f6080830186611f62565b6125ac60a0830185611c52565b81810360c08301526125be8184611e92565b905098975050505050505050565b7f596f75206861766520616c726561647920766f74656400000000000000000000600082015250565b6000612602601683611e57565b915061260d826125cc565b602082019050919050565b60006020820190508181036000830152612631816125f5565b9050919050565b7f596f7520617265206e6f7420616c6c6f77656420746f20766f74652e20476f6f60008201527f646279652e000000000000000000000000000000000000000000000000000000602082015250565b6000612694602583611e57565b915061269f82612638565b604082019050919050565b600060208201905081810360008301526126c381612687565b9050919050565b7f4e487b7100000000000000000000000000000000000000000000000000000000600052601160045260246000fd5b600061270482611c48565b915061270f83611c48565b9250828201905080821115612727576127266126ca565b5b92915050565b7f4f6e6c79206f7267616e697a65722063616e20617574686f72697a652061206360008201527f616e646964617465212120000000000000000000000000000000000000000000602082015250565b6000612789602b83611e57565b91506127948261272d565b604082019050919050565b600060208201905081810360008301526127b88161277c565b9050919050565b600060c08201905081810360008301526127d98189611e92565b905081810360208301526127ed8188611e92565b905081810360408301526128018187611e92565b90506128106060830186611c52565b61281d6080830185611cd5565b81810360a083015261282f8184611e92565b905097965050505050505056fea26469706673582212207f6b39192b7fbaaa48f9ad4e80cc1dee17bbdf21a96a27289b52bfd2e889c8ba64736f6c63430008120033",
  "linkReferences": {},
  "deployedLinkReferences": {}
}